:0A0000000C943B050C9476060C945A
:10000A0000000C9400000C9400000C9400000C9466
:10001A0000000C9400000C9400000C9400000C9456
:10002A0000000C9400000C9400000C9400000C9446
:10003A0000000C9400000C9400000C9400000C9436
:10004A0000000C9400000C940000050720600000DA
:10005A0000000000005F00000007000700147F1482
:10006A007F14242A7F2A12231308646236495522F0
:10007A00500005030000001C2241000041221C0020
:10008A00082A1C2A0808083E080800503000000800
:10009A0008080808003030000020100804023E5109
:1000AA0049453E00427F400042615149462141454F
:1000BA004B311814127F1027454545393C4A4949A6
:1000CA003001710905033649494936064949291E4D
:1000DA00003636000000563600000008142241148B
:1000EA001414141441221408000201510906324959
:1000FA0079413E7E1111117E7F494949363E41417F
:10010A0041227F4141221C7F494949417F09090116
:10011A00013E414151327F0808087F00417F41007A
:10012A002040413F017F081422417F404040407FE8
:10013A000204027F7F0408107F3E4141413E7F094D
:10014A000909063E4151215E7F0919294646494956
:10015A00493101017F01013F4040403F1F204020BB
:10016A001F7F2018207F6314081463030478040394
:10017A00615149454300007F414102040810204172
:10018A00417F000004020102044040404040000157
:10019A0002040020545454787F4844443838444474
:1001AA004420384444487F3854545418087E09017E
:1001BA0002081454543C7F0804047800447D40002B
:1001CA002040443D00007F10284400417F40007CCD
:1001DA00041804787C0804047838444444387C14AD
:1001EA00141408081414187C7C080404084854548D
:1001FA005420043F4440203C4040207C1C204020A6
:10020A001C3C4030403C44281028440C5050503C80
:10021A004464544C44000836410000007F0000004A
:10022A004136080002010204027F4141417F8000F9
:10023A004000000000000000000000000000000074
:10024A0000000000000000000000000000000000A4
:10025A000000000000000000000000000000000094
:10026A000000000000000000000000000000000084
:10027A000000000000000000000000000000000074
:10028A000000000000000000000000000000000064
:10029A000000000000000000000000000000000054
:1002AA000000000000000000000000000000000044
:1002BA000000000000000000000000000000000034
:1002CA000000000000000000000000000000000024
:1002DA000000000000000000000000000000000014
:1002EA000000000000000000000000000000000004
:1002FA0000000000000000000000000000000000F4
:10030A0000000000000000000000000000000000E3
:10031A0000000000000000000000000000000000D3
:10032A0000000000000000000000000000000000C3
:10033A0000000000000000000000000000000000B3
:10034A0000000000000000000000000000000000A3
:10035A000000000000000000000000000000000093
:10036A000000000000000000000000000000000083
:10037A000000000000000000000000000000000073
:10038A000000000000000000000000000000000063
:10039A000000000000000000000000000000000053
:1003AA000000000000000000000000000000000043
:1003BA00000000000000000000000000000000FC37
:1003CA0004040404040404040404040404040404E3
:1003DA0004040404040404040404040404040404D3
:1003EA0004040404040404040404040404040404C3
:1003FA0004040404040404040404040404040404B3
:10040A0004040404040404040404040404040404A2
:10041A000404040404040404040404040404040492
:10042A000404FC00000000000000000000000000BE
:10043A00000000000000000000000000000000FFB3
:10044A0080808080808080808080808080808080A2
:10045A008080808080808080808080808080808092
:10046A008080808080808080808080808080808082
:10047A008080808080808080808080808080808072
:10048A008080808080808080808080808080808062
:10049A008080808080808080808080808080808052
:1004AA008080FF0000000000000000000000000043
:1004BA000000000000000000000000000000000032
:1004CA000000000000000000000000000000000022
:1004DA000000000000000000000000000000000012
:1004EA000000000000000000000000000000000002
:1004FA0000000000000000000000000000000000F2
:10050A0000000000000000000000000000000000E1
:10051A0000000000000000000000000000000000D1
:10052A0000000000000000000000000000000000C1
:10053A0000000000000000000000000000000000B1
:10054A0000000000000000000000000000000000A1
:10055A000000000000000000000000000000000091
:10056A000000000000000000000000000000000081
:10057A000000000000000000000000000000000071
:10058A000000000000000000000000000000000061
:10059A000000000000000000000000000000000051
:1005AA000000000000000000000000000000000041
:1005BA000000000000000000000000000000000031
:1005CA000000000000000000000000000000000021
:1005DA000000000000000000000000000000000011
:1005EA000000000000000000000000000000000001
:1005FA0000000000000000000000000000000000F1
:10060A0000000000000000000000000000000000E0
:10061A0000000000000000000000000000000000D0
:10062A0000000000000000000000000000000000C0
:10063A000000800040000000000000000000C040F0
:10064A00404040C040404040404040404040404020
:10065A004040404040404040404040404040404090
:10066A004040404040404040404040404040404080
:10067A00C000000000000000000000C040404040F0
:10068A00C0404040404040404040404040404040E0
:10069A004040404040404040404040404040404050
:1006AA0040404040404040404040404040C0000040
:1006BA000000000000000000000000000000FF042D
:1006CA0004040407F8F888888878700080E02020FD
:1006DA00E0C000FCFC0000402020E0C00060E08098
:1006EA000080E06000003030F8F8000000000000F0
:1006FA00FF00000000000000000000FF04040404E2
:10070A0007F8F888888878700080E02020E0C00028
:10071A00FCFC0000402020E0C00060E0800080E097
:10072A00600010080888F8700000000000FF000050
:10073A000000000000000000000000000000FF00B0
:10074A00000000000F0F000001070E08070F09093B
:10075A000501000F0F00060F09090F0F0040417F26
:10076A00380F0100000000000F0F00000000000019
:10077A00FF00000000000000000000FF0000000071
:10078A00000F0F000001070E08070F0909050100F5
:10079A000F0F00060F09090F0F0040417F380F01A4
:1007AA0000000C0F0B0908080000000000FF000001
:1007BA00000000000000000000000000000001012D
:1007CA00010101010101010101010101010101010F
:1007DA0001010101010101010101010101010101FF
:1007EA0001010101010101010101010101010101EF
:1007FA0001000000000000000000000101010101E9
:10080A0001010101010101010101010101010101CE
:10081A0001010101010101010101010101010101BE
:10082A0001010101010101010101010101010000B0
:10083A0000000000000000000000000000008080AE
:10084A00808080808080808080808080808080809E
:10085A00808080808080808080808080808080808E
:10086A00808080808080808080808080808080807E
:10087A00800000000000000000000080808080806E
:10088A00808080808080808080808080808080805E
:10089A00808080808080808080808080808080804E
:1008AA00808080808080808080808080808000003E
:1008BA000000000000000000000000000000FF0827
:1008CA000808080FF0F0101010F0E00000C04040D7
:1008DA00C08000F8F80000804040C08000C0C0001E
:1008EA000000C0C00020101010F0E000000000005E
:1008FA00FF00000000000000000000FF08080808D0
:10090A000FF0F0101010F0E00000C04040C080006E
:10091A00F8F80000804040C08000C0C0000000C05D
:10092A00C0000080C060F0F00000000000FF00007E
:10093A000000000000000000000000000000FF00AE
:10094A00000000001F1F0101030E1C100F1F1212CE
:10095A000B03001F1F000C1E12121F1F008083FFB3
:10096A00701F030000081111111E0E000000000084
:10097A00FF00000000000000000000FF000000006F
:10098A00001F1F0101030E1C100F1F12120B030080
:10099A001F1F000C1E12121F1F008083FF701F03EF
:1009AA000006070705041F1F0400000000FF0000DF
:1009BA000000000000000000000000000000030228
:1009CA0002020202020202020202020202020202FD
:1009DA0002020202020202020202020202020202ED
:1009EA0002020202020202020202020202020202DD
:1009FA0003000000000000000000000302020202DF
:100A0A0002020202020202020202020202020202BC
:100A1A0002020202020202020202020202020202AC
:100A2A00020202020202020202020202020300009F
:100A3A00000000000000000103070F1F3F7FFF00B6
:100A4A0000004C6F64696E672E2E2E0001002D4E39
:100A5A00414E00494E46000002000A004A0A0A00B6
:100A6A0060024C0A01009202560A0000F894EE272E
:100A7A00ECBBF1E0F5BFE5BF8DE0A2E0BB27ED934B
:100A8A008A95E9F780E098E0A0E6ED930197E9F707
:100A9A00E2E6FAE085919591009761F0A591B5910A
:100AAA0005901590BF01F00105900D920197E1F7AD
:100ABA00FB01F0CFEFE5EDBFE8E0EEBFC0E6D2E024
:100ACA000C9418070E942A0EE8E3F2E00E942E0E08
:100ADA00E5E2EA93EFE0EA93A0E6B2E00E94EC0BCB
:100AEA00A0E9B1E00E940F0FEEE0F0E02F01E0E78D
:100AFA00F0E04E165F063CF5D3010E940F0FEEE0C0
:100B0A00EA93EBE1EA934A92A6E20E94750DEEE1BE
:100B1A00F0E0E415F50539F4A4E6B0E00E940F0F01
:100B2A00E2E0F0E03F01EAE5F0E0E415F50539F42A
:100B3A00ACEBB2E00E940F0FEAE0F0E03F01F201F5
:100B4A0031962F01D4CFACEDB5E00E940F0F0E9471
:100B5A002A0E0E94330E08950E94360E29F4E0E010
:100B6A008099E1E08E2E99240E94360EE9F3E0E0A6
:100B7A008099E1E0D401F0E0EA17FB0741F4F501BE
:100B8A0031965F010E943E0E14F4AA24BB24E0E0D1
:100B9A008199E1E0D401F0E0EA17FB0751F4F5018D
:100BAA0031975F010024A014B0041CF4E3E0F0E0E4
:100BBA005F010E94360EE9F708950A2C0B2869F4A2
:100BCA000E942A0E0E94330EE7E0EA93E5E0EA93D8
:100BDA00EBE3EA93A9E10E94750DE1E0F0E0EA1582
:100BEA00FB0569F40E942A0E0E94330EE4E4EA939C
:100BFA00E5E0EA93E8E7EA93A9E10E94750DE2E0ED
:100C0A00F0E0EA15FB0569F40E942A0E0E94330EF1
:100C1A00E4E4EA93E6E2EA93E8E7EA93AAE30E94C5
:100C2A00750D0E943E0E69F40E942A0E0E94330E30
:100C3A00E7E0EA93E6E2EA93EBE3EA93AAE30E94A7
:100C4A00750DA0918702B0918802119729F40E942C
:100C5A00430EA1E00E946F080E94480E309729F4C3
:100C6A000E94430EA0E00E946F080E944D0EE130E0
:100C7A00A0E0FA0729F40E94520EA1E00E946F0830
:100C8A000E944D0E309729F40E94520EA0E00E9455
:100C9A006F080E94570EE130A0E0FA0729F40E947B
:100CAA005C0EA1E00E946F080E94570E309729F44B
:100CBA000E945C0EA0E00E946F080E94610EE13063
:100CCA00A0E0FA0729F40E94660EA1E00E946F08CC
:100CDA000E94610E309721F40E94660EA0E0FAD1BC
:100CEA0008950A921A92FA926A937A938A939A9335
:100CFA00AA93BA93EA93FA93EFB7EA930A2C0B28CA
:100D0A0071F4939B02C0939801C0939A0E94480E73
:100D1A000E942D0FF0E0E0938702F0938802E1E051
:100D2A00F0E0EA15FB0559F4949B02C0949801C0BF
:100D3A00949AA9E8B2E00E944D0E0E946B0EE2E07E
:100D4A00F0E0EA15FB0559F4969B02C0969801C09B
:100D5A00969AADE8B2E00E94610E0E946B0E0E9464
:100D6A003E0E59F4959B02C0959801C0959AABE83E
:100D7A00B2E00E94570E0E946B0EA0918702B091BA
:100D8A008802119721F40E94430EA1E0A3D10E9488
:100D9A00480E309721F40E94430EA0E09BD10E9496
:100DAA004D0EE130A0E0FA0721F40E94520EA1E0B4
:100DBA0091D10E944D0E309721F40E94520EA0E06C
:100DCA0089D10E94570EE130A0E0FA0721F40E946F
:100DDA005C0EA1E07FD10E94570E309721F40E9449
:100DEA005C0EA0E077D10E94610EE130A0E0FA0724
:100DFA0021F40E94660EA1E06DD10E94610E309727
:100E0A0021F40E94660EA0E065D1E991EFBFF99145
:100E1A00E991B991A9919991899179916991F990F9
:100E2A001990099018952697E0E0EABBEBBBE7BB5F
:100E3A00E8BBE4BBE5BBE1BBEFE1E2BBE0E0E3BF5B
:100E4A00E2BFECBFEFBDEEBDEDBDECBDE7BDE6BD5B
:100E5A00EBBDEABDE9BDE8BDE2BDE5BDE4BDE3BD6C
:100E6A00E9BFE5BFE4BFE5B7E260E5BFE5B7EE7FFE
:100E7A00E5BFEBB7E064EBBF7894E0E0EAB9E0E8FD
:100E8A00E8B9E0E0E0BFE6B9EDB9E6BFE4E5F0E0D5
:100E9A00E883F983E0E0EA83EB83EC83ED83DE0108
:100EAA008ED08B9A93988C9A94988D9A95988E9ABC
:100EBA00969808DE51DE81DEFDCFFFCF0000A89AAA
:100ECA0000000895A898AC98AD9808951A93F6DF93
:100EDA0019B3A898E12F19910895AA931A93E0E0FB
:100EEA00EABBA99AAA98E981EF5F1E2F10FF02C0F8
:100EFA00AC9A01C0AC9811FF02C0AD9A01C0AD987E
:100F0A00E5DFE078E9F7188126C0AA93A981E5DF31
:100F1A000E94710E20C0E0919002EA93E0918F0244
:100F2A00EF73E064AE2FF1DFE0919002EA93E09173
:100F3A009102E86BAE2FE9DF0895AA93E981E09365
:100F4A008F02E295EF70E695E695E0939002E881CC
:100F5A00E0939102E0DF22960895A0918F02AF5F9D
:100F6A00A0938F02A03818F0E0E0E0938F02E0919E
:100F7A008F02EF7331F4E0918F02EA93A09191020C
:100F8A00DCDF0895AA93A0919002A7DFAA9A0E9493
:100F9A00710E21960895A09190029FDFE0E0EABBCE
:100FAA00A99AAA9A93DF0895AA93E981EA93E98113
:100FBA000E947A0EF0DFAFDFEEDF0C94C20DBA9317
:100FCA00AA931A93A09AA19AA29AA39AAB9AA49ABC
:100FDA00A59A78DFAB98A4E6B0E00E940F0FAB9A0F
:100FEA0010E0123040F41A93AFE38FDF1A9313958F
:100FFA00A0EC8BDFF6CFE1E0E0936A02E0E0E09359
:10100A006B02E981FA813097A9F0A981BA810E941D
:10101A005A0FE0936E02F0936F0212960E945A0FD3
:10102A00E0938302F0938402A981BA8114960E9404
:10103A005A0F0AC0E0E0F0E0E0936E02F0936F020C
:10104A00E0938302F0938402E0938502F093860290
:10105A00E1E0E0937002E0937102E0937202EFEF35
:10106A00E0937302E1E0E0937A02EBE7F2E0FA93AD
:10107A00EA93EFEFEA93A8E0B0E00E94A90D04D04A
:10108A00E1E018810C94090E0E94810F00E030E023
:10109A00E0916B02E03009F00FEF383078F4E0E0CD
:1010AA00EA93A32F3F5F49DF10E0A12F1F5FA0380B
:1010BA0020F4A02F0E94800EF8CFEFCFE0E0EA9351
:1010CA00A0E03BDFE0E0EA93A0E0DDD30E94880FD6
:1010DA000C94280EAA931A930A93AC81A03818F498
:1010EA00AB81A03420F0198108810C94B70DEC81F2
:1010FA00EA93AC8159DF1E2F0EDFEB81E770A1E086
:10110A000E941D0F0E2FEA81E03011F0102B03C050
:10111A00E02FE0951E23A12F35DF198108810C9459
:10112A00B70DAA931A93ED81EA93AD813DDF1E2F85
:10113A00F2DEE981E73011F0E83039F4EB81EA9325
:10114A00AA810E94C40DEB8308C0E33021F4EB812D
:10115A00E095EB8302C0E03021F4EA81E0951E239A
:10116A0002C0E23029F4EA81AB81EA231E2B0EC0C9
:10117A00E13029F4EA81AB81EA231E2707C0E43073
:10118A0029F4EA81E095AB81EA2B1E23A12F0E9464
:10119A00800E188126960895AA9323970E947F0F9E
:1011AA00A889A03848F4AF85A03430F4AE85A030C1
:1011BA0019F0AD85A03009F4C8C1EE85E887A88981
:1011CA00BB27EE85F0E0AE0FBF1FA138E0E0BE07F7
:1011DA0020F0A889E0E8EA1BEE872D85AF85BB27BA
:1011EA00ED85F0E0AE0FBF1FA134E0E0BE0720F0AE
:1011FA00AF85E0E4EA1BED87A985A63009F05BC05C
:10120A00EC85E13009F4A1C1E33039F4E0918502BB
:10121A00F0918602309709F498C10885ED85E69524
:10122A00E695E6953E2FE22FE77019F4AD852A1769
:10123A00E9F0A02FBB27E32FF0E00E94320FAA8526
:10124A00BB850E94840E269526952695532F5F937B
:10125A005F5FE22FAF91EA1748F0102FE12F11508C
:10126A00E03019F00E94890EF9CFF1CFAE850A1746
:10127A0011F1EE85AA85BB85F0E00E94840EED850A
:10128A00E77009F03F5F20E02F932F5FE32FAF91C4
:10129A00AE1788F41E851F931F5FE02FAF91AE171C
:1012AA0018F40E94890EF7CFEE85AE81BF81F0E077
:1012BA000E94840EE9CFEF85E7703E2FED85E0307E
:1012CA0009F443C1EA85FB85EE83FF8310E00889B0
:1012DA00303009F065C0AD85A83008F45CC0E985F6
:1012EA00E03011F0E33009F402C0E73009F402C03B
:1012FA00E83009F402C0E63009F402C0E93009F422
:10130A0002C0EA3021F40A93E8890E947A0E1F93F8
:10131A001F5FEE85AF91AE17B8F5A985A63061F4C7
:10132A003ADEF9DD0E94960EFA93EA9334DEAE2F86
:10133A000E940B0E12DE27C0E985E93011F450E055
:10134A000EC0EA3011F45FEF0AC00E94960E0E94A6
:10135A009F0E5E2FE985E73011F0E83021F40E94F4
:10136A00A50E5E2F06C0E33011F4509502C0E0309E
:10137A0021F4A52F0E94800E06C00E94A90EEFEF4D
:10138A00EA93AD85CEDEC3CFEF85E85FEF87ED85C3
:10139A00E850ED87D1C05D8520E0E0E0ED877AC0B6
:1013AA00E32FAD85AE0FA93020F42D85E0E0ED875F
:1013BA0003C0E8E0E31B2E2F3A93A22F0E94B90D37
:1013CA004E2FE985E630F1F41F931F5FEE85AF914A
:1013DA00AE17B8F40E94AF0EAE2FE32F0E94250F6E
:1013EA000E94B60EE32FA42F0E94250FE095E1215B
:1013FA005E2B0E94960EFA93EA93A52F0E940B0E7B
:10140A00E3CF2CC0E93011F450E003C0EA30A9F46C
:10141A005FEF0E94A50EAE2FE32F0E941D0F5E2FD5
:10142A001F931F5FEE85AF91AE1730F40E94A90E8D
:10143A004A93A0E076DEF4CF11C01F931F5FEE85BA
:10144A00AF91AE1758F40E94C10EAE2FE32F0E943F
:10145A001D0FEA934A93AD8564DEEFCFED85E03048
:10146A0009F473C0AD85A83028F4ED85E21B5E2F20
:10147A00E0E003C0532FED85E850ED8710E0EF85DB
:10148A00E85FEF87E8E0E31B2E2F0889EA85FB85F2
:10149A00EE83FF83E52FF0E0E05CF54F4491E985A8
:1014AA00E630F1F41F931F5FEE85AF91AE17B8F4E3
:1014BA000E94AF0EAE2FE22F0E941D0F0E94B60EA1
:1014CA00E22FA42F0E941D0FE095E1215E2B0E94BE
:1014DA00960EFA93EA93A52F0E940B0EE3CF2CC027
:1014EA00E93011F450E003C0EA30A9F45FEF0E943A
:1014FA00A50EAE2FE22F0E94250F5E2F1F931F5FAE
:10150A00EE85AF91AE1730F40E94A90E4A93A0E07F
:10151A0008DEF4CF11C01F931F5FEE85AF91AE179F
:10152A0058F40E94C10EAE2FE22F0E94250FEA93B3
:10153A004A93AD85F6DDEFCFE885AA85BB85F0E055
:10154A00EA0FFB1FEA87FB87B9CE0E94860F6196D6
:10155A0008950E94CE0E24F0E0E0F0E00C94C20D53
:10156A00A881B981A038E0E0BE0724F0EFE7F0E0F7
:10157A000C94C20DE881F9810C94C20D0E94CE0E22
:10158A0024F0E0E0F0E00C94C20DA881B981A03407
:10159A00E0E0BE0724F0EFE3F0E00C94C20DE8812E
:1015AA00F9810C94C20DAA931A93AA81A03818F44F
:1015BA00A981A03438F0E0E0F0E060E070E0188142
:1015CA000C94090EE981E7701E2FE981E695E695EC
:1015DA00E695E983103011F0EF5FE983AA81BB2712
:1015EA0088279927E981FF27662777270E943A0FDC
:1015FA00EC5FFF4F6F4F7F4F18810C94090EBA931F
:10160A00AA9323970E94D50E8F01002E012A19F45E
:10161A00E0E0F0E05FC00E94DC0E0F820E94DC0E68
:10162A000E820E94DC0E0886EB85A885EA1718F45C
:10163A00E0E0F0E04FC0F8010F5F1F4F5491A8851A
:10164A00BB27EE27A50FBE1FEB85F0E0EA17FB07C5
:10165A0018F0E0E0F0E03EC0EE81E695E695E6950A
:10166A004E2FEE81E77009F04F5FEF81E030A1F075
:10167A00A985BA85EC93A885EB85EA1BF0E0DF0122
:10168A00EF81F0E00E94320FDF01E42FF0E00E94C8
:10169A00320FE00FF11F1EC09801E52FF0E00E0F88
:1016AA001F1FA885AF5FA887A150EB85AE1760F40E
:1016BA00F9012F5F3F4FA491B0E0E42FF0E00E94C0
:1016CA00320F0E0F1F1FEDCFF901E491A985BA85DC
:1016DA00EC93F8010E94860F2C960895E0E0E093BF
:1016EA006C02A0916D02BB270E94E10EF0E0AE0FE2
:1016FA00BF1FE0917102F0E0AE0FBF1F3FDFE09322
:10170A006D020895AA9321970E94D50E309709F485
:10171A0059C0AF81AA3009F451C0EF81EA93DE01C2
:10172A0017966DDFAF01309719F40E94860F0AC22F
:10173A00E0917002AE81EA0F3E2FA0916C02BB27A6
:10174A00F0E0EA0FFB1F8F010138E0E01E0718F0F6
:10175A00032F1127C3DFE0916C02EA93E0916D0237
:10176A00EA93E885EA930E94E10EEA93E1E0EA93BC
:10177A005A934A93A7E010DDE0916C02AE81EA0F1A
:10178A00EA93E0916D02EA93E0917002EA930E9473
:10179A00E10E0E94E80EE0916C02EA93A0916D02BC
:1017AA000E94E10EEA0FEA933A93E09171020E94D5
:1017BA00E80EE0E8F0E0E017F10721F48FDF0E947D
:1017CA00860FC0C100936C020E94860FBBC1BA93F8
:1017DA00AA931A93EC81EA93AC8155D0A981BA8174
:1017EA00ED91A983BA831E2FE03019F0A12F8ADF69
:1017FA00F5CF1881B7C1AA930E94810FAC81A53099
:10180A0000F5ED81FE8105910E94F20E15910E946C
:10181A00F20E25910E94F20E3591ED83FE83E88542
:10182A00EA93E885EA930A932A93E1E0EA93EA8540
:10183A00FB85FA93EA93AB85AFDC0A93A22FB3DE5A
:10184A0004C0E0E0F0E060E070E00E94880F2996B2
:10185A000895AA93EA81EA93EA81EA93E0917302EE
:10186A00AA81EA2319F0E0916A0202C0E0916B02B0
:10187A00AE2F30DCE881EE0FE883E03011F4E1E0CE
:10188A00E883E881C1C1AA93A981BB2762DEE093FC
:10189A006C02A881BB2772DEE0936D026EC1AA9327
:1018AA002B970E947F0FAC89BB2753DEEC8BAA894A
:1018BA00BB274FDEEA8BAB89BB2760DEEB8BA9899E
:1018CA00BB275CDEE98BEA89E0936C02E989E09345
:1018DA006D02E1E0E887E989AB89EA1771F51C89AD
:1018EA00AA891A1731F41A93EC89EA93A1E0B1DFB5
:1018FA00C8C0AA891A1730F4EA89E11B0E2F41E001
:10190A0050E006C0AA89E12FEA1B0E2F4FEF5FEFC6
:10191A003B89E0E0EE830E94F50E38F41A933A937D
:10192A003395AA8596DFEF83F6CFEF81E887140F08
:10193A00E02F0150E03061F7A4C0EA89AC89EA17C8
:10194A0039F53B89A9893A1730F4E989E31B2E2F27
:10195A00E1E0F0E006C0A989E32FEA1B2E2FEFEFA2
:10196A00FFEFED87FE871C89E0E0EE830E94F50E0B
:10197A0030F41A9313950E94FD0EEF83F7CFEF818F
:10198A00E887ED853E0FE22F2150E03061F779C0FC
:10199A00E0E0EE830E94F50E08F073C01C893B89D3
:1019AA00E1E02E2F0E2FAA89BB27EC89F0E0AE1BAF
:1019BA00BF0BAD0155232AF40FEFFA010E94190F4C
:1019CA00AF01FA01EE0FFF1FEF87F88BA989BB273A
:1019DA00EB89F0E0AE1BBF0BAD87BE87AE85AA23AD
:1019EA003AF42FEFED85FE850E94190FED87FE87E9
:1019FA00ED85FE85EE0FFF1FEB87FC871A933A935E
:101A0A00A1E027DFE887E0E0E987EA87AD85BE85C0
:101A1A004A175B07BCF0100FEB85FC850E94010F8B
:101A2A00A985BA854A175B072CF4320FAF85B889A6
:101A3A000E94080F1A930E94FD0EE887EA89E117AF
:101A4A0051F718C0320FEF85F8890E94010FED8512
:101A5A00FE85A985BA85EA17FB072CF4100FAB851A
:101A6A00BC850E94080F1A930E94FD0EE887E98937
:101A7A00E31741F7EB89EF5FEB8BE989EF5FE98BBE
:101A8A0089CF0E94860F65960895BA93AA930E94F9
:101A9A007F0FEE81FF81138101813281AE81BF8187
:101AAA002C91011718F4502F012F152F231718F412
:101ABA00522F232F352FE12FAE81BF811396EC933E
:101ACA00E32FAE81BF811296EC93E02FAE81BF81E6
:101ADA001196EC93AE81BF812C930E94860F32C07F
:101AEA00AA930E94810FE0917202E1503E2FDE011B
:101AFA001496CBDFED81E31B1E2FEC81E31B0E2F27
:101B0A00EF81EA93EF81EA931A93A985C8DE1A93C3
:101B1A00EF81EA931A93A02FC2DEED81EA930A932A
:101B2A00E32FA985EA0FEA93A02FB9DEEF81EA93A2
:101B3A00ED81EA93E985EA93E32FA985AE0FAFDE3B
:101B4A000E94880F28960895BA93AA93B981A8810A
:101B5A00109631F0FC81EB816A8161931197E9F764
:101B6A00EB81FC8125960895AA93E881F0E0E05C78
:101B7A00F54FA491E9810E941D0F22960895AA9318
:101B8A001A93E981E73011F0EA3019F410916A02E8
:101B9A0009C0E93019F410916B0204C0E830A1F4CD
:101BAA0010917A02E0916B02E03049F0103019F09E
:101BBA00EFEF188129C0EA81E095188125C010301D
:101BCA0019F4E0E0188120C0EA8118811DC0BA9397
:101BDA00AA93EA81E13021F4E881F981E49114C001
:101BEA00E23029F4A881B9810E945E0F0DC0E3306A
:101BFA0041F4A881B981E0918302F09184020995A8
:101C0A0003C0A881B981EC9123960895AA93EB8128
:101C1A00E03029F4E881A981BA81EC9314C0E2305A
:101C2A0031F4E881A981BA810E946A0F0CC0E330BD
:101C3A0051F4E981FA81FA93EA93AA81E091850243
:101C4A00F0918602099524960895E0E0EA93EA93D2
:101C5A000895FA93EA93A0E00C94000CECE3F6E002
:101C6A00F8CFA0E08099A1E0E0E08199E1E0EA17ED
:101C7A000895E3E0F0E0EA15FB050895EAE0EA9347
:101C8A00E8E0EA930895E0918702F09188020895C6
:101C9A00E0918902F0918A020895E7E4EA93E8E084
:101CAA00EA930895E0918B02F0918C020895EAE09C
:101CBA00EA93E9E2EA930895E0918D02F0918E02A7
:101CCA000895E7E4EA93E9E2EA9308950E942D0F62
:101CDA00F0E0ED93FC930895A998EFEFEABBE88151
:101CEA00EBBB0E9463070C946707E695E695E695B9
:101CFA00AE2F0C94A2070E94C7070C94B207EA0FF2
:101D0A00FB1FEE83FF830895EC85EA93EF81F88544
:101D1A003196EF83F8873197FA93EA93A0E00C940F
:101D2A000B0EEC85EA93EF81F8853196EF83F887FD
:101D3A003197089566277727DF01CB010C94EC0DC4
:101D4A005A93AA850C94C40D0A930395E889EA93D9
:101D5A005A9308950A930395A8890E94D907E42300
:101D6A0008955E2FEC85EA93AF81B8858827992775
:101D7A000E94EC0D1E2E08950A930395E889EA93B2
:101D8A00EE85EA93E985FA853196E987FA873197EC
:101D9A00D1CFBA93AA93A881B9810E947B0F0895E3
:101DAA000E947F0FE0916E02F0916F020895F80190
:101DBA000F5F1F4F04900895E0916E02F0916F0239
:101DCA003196E4910895EA93E0E0EA93E0E0F0E0E6
:101DDA00FA93EA93A9E00C94D108ED83FE8308955F
:101DEA00AE81AF5FAE83A150E0917202AE17089543
:101DFA003A93AA850C942E0CA985BA85EA0FFB1F83
:101E0A00E987FA870895E985FA85EA1BFB0BE987D2
:101E1A00FA870895109639F0A89580ED97E0019712
:101E2A00F1F71197C9F70895F195E195F0400895F2
:101E3A00EE230E2EEA2F19F0EE0F0A94E9F7089511
:101E4A00EE230E2EEA2F19F0E6950A94E9F7089583
:101E5A00EF2BE1E009F0E0E00895FA9FF02DEB9F07
:101E6A00F00DEA9FE02DF10D08957A9F702D6B9F7A
:101E7A00700DF89F700DE99F700D6A9F602D710DAE
:101E8A00FB9F600D711DE89F600D711D8827FA9FE9
:101E9A00F02D610D781FEB9FF00D611D781FEA9FF1
:101EAA00E02DF10D681F781F0895ED91FC911197AF
:101EBA000895E199FECFFF93FFB7F894AEBBBFBB7D
:101ECA00E09AEDB3FFBFFF910895E19B02C0A89588
:101EDA00FCCF9FB7F894AEBBBFBBE09A8DB3E817AF
:101EEA0019F0EDBBE29AE19A9FBF089500240A1601
:101EFA000B0608955A934A933A932A931A930A938C
:101F0A0008955D814C813B812A8119810881089558
:00000001FF
